{
  "_format": "hh-sol-artifact-1",
  "contractName": "MissileNFT",
  "sourceName": "contracts/MissileNFT.sol",
  "abi": [
    {
      "inputs": [],
      "stateMutability": "nonpayable",
      "type": "constructor"
    },
    {
      "inputs": [
        {
          "internalType": "address",
          "name": "sender",
          "type": "address"
        },
        {
          "internalType": "uint256",
          "name": "tokenId",
          "type": "uint256"
        },
        {
          "internalType": "address",
          "name": "owner",
          "type": "address"
        }
      ],
      "name": "ERC721IncorrectOwner",
      "type": "error"
    },
    {
      "inputs": [
        {
          "internalType": "address",
          "name": "operator",
          "type": "address"
        },
        {
          "internalType": "uint256",
          "name": "tokenId",
          "type": "uint256"
        }
      ],
      "name": "ERC721InsufficientApproval",
      "type": "error"
    },
    {
      "inputs": [
        {
          "internalType": "address",
          "name": "approver",
          "type": "address"
        }
      ],
      "name": "ERC721InvalidApprover",
      "type": "error"
    },
    {
      "inputs": [
        {
          "internalType": "address",
          "name": "operator",
          "type": "address"
        }
      ],
      "name": "ERC721InvalidOperator",
      "type": "error"
    },
    {
      "inputs": [
        {
          "internalType": "address",
          "name": "owner",
          "type": "address"
        }
      ],
      "name": "ERC721InvalidOwner",
      "type": "error"
    },
    {
      "inputs": [
        {
          "internalType": "address",
          "name": "receiver",
          "type": "address"
        }
      ],
      "name": "ERC721InvalidReceiver",
      "type": "error"
    },
    {
      "inputs": [
        {
          "internalType": "address",
          "name": "sender",
          "type": "address"
        }
      ],
      "name": "ERC721InvalidSender",
      "type": "error"
    },
    {
      "inputs": [
        {
          "internalType": "uint256",
          "name": "tokenId",
          "type": "uint256"
        }
      ],
      "name": "ERC721NonexistentToken",
      "type": "error"
    },
    {
      "inputs": [
        {
          "internalType": "address",
          "name": "owner",
          "type": "address"
        }
      ],
      "name": "OwnableInvalidOwner",
      "type": "error"
    },
    {
      "inputs": [
        {
          "internalType": "address",
          "name": "account",
          "type": "address"
        }
      ],
      "name": "OwnableUnauthorizedAccount",
      "type": "error"
    },
    {
      "anonymous": false,
      "inputs": [
        {
          "indexed": true,
          "internalType": "address",
          "name": "owner",
          "type": "address"
        },
        {
          "indexed": true,
          "internalType": "address",
          "name": "approved",
          "type": "address"
        },
        {
          "indexed": true,
          "internalType": "uint256",
          "name": "tokenId",
          "type": "uint256"
        }
      ],
      "name": "Approval",
      "type": "event"
    },
    {
      "anonymous": false,
      "inputs": [
        {
          "indexed": true,
          "internalType": "address",
          "name": "owner",
          "type": "address"
        },
        {
          "indexed": true,
          "internalType": "address",
          "name": "operator",
          "type": "address"
        },
        {
          "indexed": false,
          "internalType": "bool",
          "name": "approved",
          "type": "bool"
        }
      ],
      "name": "ApprovalForAll",
      "type": "event"
    },
    {
      "anonymous": false,
      "inputs": [
        {
          "indexed": false,
          "internalType": "uint256",
          "name": "_fromTokenId",
          "type": "uint256"
        },
        {
          "indexed": false,
          "internalType": "uint256",
          "name": "_toTokenId",
          "type": "uint256"
        }
      ],
      "name": "BatchMetadataUpdate",
      "type": "event"
    },
    {
      "anonymous": false,
      "inputs": [
        {
          "indexed": false,
          "internalType": "uint256",
          "name": "_tokenId",
          "type": "uint256"
        }
      ],
      "name": "MetadataUpdate",
      "type": "event"
    },
    {
      "anonymous": false,
      "inputs": [
        {
          "indexed": true,
          "internalType": "address",
          "name": "previousOwner",
          "type": "address"
        },
        {
          "indexed": true,
          "internalType": "address",
          "name": "newOwner",
          "type": "address"
        }
      ],
      "name": "OwnershipTransferred",
      "type": "event"
    },
    {
      "anonymous": false,
      "inputs": [
        {
          "indexed": true,
          "internalType": "address",
          "name": "from",
          "type": "address"
        },
        {
          "indexed": true,
          "internalType": "address",
          "name": "to",
          "type": "address"
        },
        {
          "indexed": true,
          "internalType": "uint256",
          "name": "tokenId",
          "type": "uint256"
        }
      ],
      "name": "Transfer",
      "type": "event"
    },
    {
      "inputs": [
        {
          "internalType": "address",
          "name": "to",
          "type": "address"
        },
        {
          "internalType": "uint256",
          "name": "tokenId",
          "type": "uint256"
        }
      ],
      "name": "approve",
      "outputs": [],
      "stateMutability": "nonpayable",
      "type": "function"
    },
    {
      "inputs": [
        {
          "internalType": "address",
          "name": "owner",
          "type": "address"
        }
      ],
      "name": "balanceOf",
      "outputs": [
        {
          "internalType": "uint256",
          "name": "",
          "type": "uint256"
        }
      ],
      "stateMutability": "view",
      "type": "function"
    },
    {
      "inputs": [
        {
          "internalType": "uint256",
          "name": "tokenId",
          "type": "uint256"
        }
      ],
      "name": "getApproved",
      "outputs": [
        {
          "internalType": "address",
          "name": "",
          "type": "address"
        }
      ],
      "stateMutability": "view",
      "type": "function"
    },
    {
      "inputs": [
        {
          "internalType": "uint256",
          "name": "missileType",
          "type": "uint256"
        }
      ],
      "name": "getMissilePrice",
      "outputs": [
        {
          "internalType": "uint256",
          "name": "",
          "type": "uint256"
        }
      ],
      "stateMutability": "view",
      "type": "function"
    },
    {
      "inputs": [
        {
          "internalType": "address",
          "name": "owner",
          "type": "address"
        },
        {
          "internalType": "address",
          "name": "operator",
          "type": "address"
        }
      ],
      "name": "isApprovedForAll",
      "outputs": [
        {
          "internalType": "bool",
          "name": "",
          "type": "bool"
        }
      ],
      "stateMutability": "view",
      "type": "function"
    },
    {
      "inputs": [
        {
          "internalType": "uint256",
          "name": "missileType",
          "type": "uint256"
        },
        {
          "internalType": "string",
          "name": "tokenURI",
          "type": "string"
        }
      ],
      "name": "mintMissile",
      "outputs": [
        {
          "internalType": "uint256",
          "name": "",
          "type": "uint256"
        }
      ],
      "stateMutability": "payable",
      "type": "function"
    },
    {
      "inputs": [
        {
          "internalType": "uint256",
          "name": "",
          "type": "uint256"
        }
      ],
      "name": "missileTypePrices",
      "outputs": [
        {
          "internalType": "uint256",
          "name": "",
          "type": "uint256"
        }
      ],
      "stateMutability": "view",
      "type": "function"
    },
    {
      "inputs": [],
      "name": "name",
      "outputs": [
        {
          "internalType": "string",
          "name": "",
          "type": "string"
        }
      ],
      "stateMutability": "view",
      "type": "function"
    },
    {
      "inputs": [],
      "name": "owner",
      "outputs": [
        {
          "internalType": "address",
          "name": "",
          "type": "address"
        }
      ],
      "stateMutability": "view",
      "type": "function"
    },
    {
      "inputs": [
        {
          "internalType": "uint256",
          "name": "tokenId",
          "type": "uint256"
        }
      ],
      "name": "ownerOf",
      "outputs": [
        {
          "internalType": "address",
          "name": "",
          "type": "address"
        }
      ],
      "stateMutability": "view",
      "type": "function"
    },
    {
      "inputs": [],
      "name": "renounceOwnership",
      "outputs": [],
      "stateMutability": "nonpayable",
      "type": "function"
    },
    {
      "inputs": [
        {
          "internalType": "address",
          "name": "from",
          "type": "address"
        },
        {
          "internalType": "address",
          "name": "to",
          "type": "address"
        },
        {
          "internalType": "uint256",
          "name": "tokenId",
          "type": "uint256"
        }
      ],
      "name": "safeTransferFrom",
      "outputs": [],
      "stateMutability": "nonpayable",
      "type": "function"
    },
    {
      "inputs": [
        {
          "internalType": "address",
          "name": "from",
          "type": "address"
        },
        {
          "internalType": "address",
          "name": "to",
          "type": "address"
        },
        {
          "internalType": "uint256",
          "name": "tokenId",
          "type": "uint256"
        },
        {
          "internalType": "bytes",
          "name": "data",
          "type": "bytes"
        }
      ],
      "name": "safeTransferFrom",
      "outputs": [],
      "stateMutability": "nonpayable",
      "type": "function"
    },
    {
      "inputs": [
        {
          "internalType": "address",
          "name": "operator",
          "type": "address"
        },
        {
          "internalType": "bool",
          "name": "approved",
          "type": "bool"
        }
      ],
      "name": "setApprovalForAll",
      "outputs": [],
      "stateMutability": "nonpayable",
      "type": "function"
    },
    {
      "inputs": [
        {
          "internalType": "bytes4",
          "name": "interfaceId",
          "type": "bytes4"
        }
      ],
      "name": "supportsInterface",
      "outputs": [
        {
          "internalType": "bool",
          "name": "",
          "type": "bool"
        }
      ],
      "stateMutability": "view",
      "type": "function"
    },
    {
      "inputs": [],
      "name": "symbol",
      "outputs": [
        {
          "internalType": "string",
          "name": "",
          "type": "string"
        }
      ],
      "stateMutability": "view",
      "type": "function"
    },
    {
      "inputs": [
        {
          "internalType": "uint256",
          "name": "tokenId",
          "type": "uint256"
        }
      ],
      "name": "tokenURI",
      "outputs": [
        {
          "internalType": "string",
          "name": "",
          "type": "string"
        }
      ],
      "stateMutability": "view",
      "type": "function"
    },
    {
      "inputs": [
        {
          "internalType": "address",
          "name": "from",
          "type": "address"
        },
        {
          "internalType": "address",
          "name": "to",
          "type": "address"
        },
        {
          "internalType": "uint256",
          "name": "tokenId",
          "type": "uint256"
        }
      ],
      "name": "transferFrom",
      "outputs": [],
      "stateMutability": "nonpayable",
      "type": "function"
    },
    {
      "inputs": [
        {
          "internalType": "address",
          "name": "newOwner",
          "type": "address"
        }
      ],
      "name": "transferOwnership",
      "outputs": [],
      "stateMutability": "nonpayable",
      "type": "function"
    },
    {
      "inputs": [
        {
          "internalType": "uint256",
          "name": "missileType",
          "type": "uint256"
        },
        {
          "internalType": "uint256",
          "name": "newPrice",
          "type": "uint256"
        }
      ],
      "name": "updateMissilePrice",
      "outputs": [],
      "stateMutability": "nonpayable",
      "type": "function"
    },
    {
      "inputs": [],
      "name": "withdrawFunds",
      "outputs": [],
      "stateMutability": "nonpayable",
      "type": "function"
    }
  ],
  "bytecode": "0x608060405234801561001057600080fd5b50336040518060400160405280600a81526020017f4d697373696c654e4654000000000000000000000000000000000000000000008152506040518060400160405280600481526020017f4d53534c00000000000000000000000000000000000000000000000000000000815250816000908161008d919061049d565b50806001908161009d919061049d565b505050600073ffffffffffffffffffffffffffffffffffffffff168173ffffffffffffffffffffffffffffffffffffffff16036101125760006040517f1e4fbdf700000000000000000000000000000000000000000000000000000000815260040161010991906105b0565b60405180910390fd5b6101218161018760201b60201c565b50662386f26fc1000060096000600181526020019081526020016000208190555066470de4df82000060096000600281526020019081526020016000208190555066b1a2bc2ec500006009600060038152602001908152602001600020819055506105cb565b6000600760009054906101000a900473ffffffffffffffffffffffffffffffffffffffff16905081600760006101000a81548173ffffffffffffffffffffffffffffffffffffffff021916908373ffffffffffffffffffffffffffffffffffffffff1602179055508173ffffffffffffffffffffffffffffffffffffffff168173ffffffffffffffffffffffffffffffffffffffff167f8be0079c531659141344cd1fd0a4f28419497f9722a3daafe3b4186f6b6457e060405160405180910390a35050565b600081519050919050565b7f4e487b7100000000000000000000000000000000000000000000000000000000600052604160045260246000fd5b7f4e487b7100000000000000000000000000000000000000000000000000000000600052602260045260246000fd5b600060028204905060018216806102ce57607f821691505b6020821081036102e1576102e0610287565b5b50919050565b60008190508160005260206000209050919050565b60006020601f8301049050919050565b600082821b905092915050565b6000600883026103497fffffffffffffffffffffffffffffffffffffffffffffffffffffffffffffffff8261030c565b610353868361030c565b95508019841693508086168417925050509392505050565b6000819050919050565b6000819050919050565b600061039a6103956103908461036b565b610375565b61036b565b9050919050565b6000819050919050565b6103b48361037f565b6103c86103c0826103a1565b848454610319565b825550505050565b600090565b6103dd6103d0565b6103e88184846103ab565b505050565b5b8181101561040c576104016000826103d5565b6001810190506103ee565b5050565b601f82111561045157610422816102e7565b61042b846102fc565b8101602085101561043a578190505b61044e610446856102fc565b8301826103ed565b50505b505050565b600082821c905092915050565b600061047460001984600802610456565b1980831691505092915050565b600061048d8383610463565b9150826002028217905092915050565b6104a68261024d565b67ffffffffffffffff8111156104bf576104be610258565b5b6104c982546102b6565b6104d4828285610410565b600060209050601f83116001811461050757600084156104f5578287015190505b6104ff8582610481565b865550610567565b601f198416610515866102e7565b60005b8281101561053d57848901518255600182019150602085019450602081019050610518565b8683101561055a5784890151610556601f891682610463565b8355505b6001600288020188555050505b505050505050565b600073ffffffffffffffffffffffffffffffffffffffff82169050919050565b600061059a8261056f565b9050919050565b6105aa8161058f565b82525050565b60006020820190506105c560008301846105a1565b92915050565b612cc0806105da6000396000f3fe60806040526004361061012a5760003560e01c80636b4e0dd8116100ab578063a22cb4651161006f578063a22cb465146103f0578063ad8239b514610419578063b88d4fde14610449578063c87b56dd14610472578063e985e9c5146104af578063f2fde38b146104ec5761012a565b80636b4e0dd81461031d57806370a0823114610346578063715018a6146103835780638da5cb5b1461039a57806395d89b41146103c55761012a565b806323b872dd116100f257806323b872dd1461023a57806324600fc31461026357806342842e0e1461027a5780635edd4219146102a35780636352211e146102e05761012a565b806301ffc9a71461012f57806306fdde031461016c578063081812fc14610197578063095ea7b3146101d4578063180cb4e2146101fd575b600080fd5b34801561013b57600080fd5b5061015660048036038101906101519190611f60565b610515565b6040516101639190611fa8565b60405180910390f35b34801561017857600080fd5b50610181610527565b60405161018e9190612053565b60405180910390f35b3480156101a357600080fd5b506101be60048036038101906101b991906120ab565b6105b9565b6040516101cb9190612119565b60405180910390f35b3480156101e057600080fd5b506101fb60048036038101906101f69190612160565b6105d5565b005b34801561020957600080fd5b50610224600480360381019061021f91906120ab565b6105eb565b60405161023191906121af565b60405180910390f35b34801561024657600080fd5b50610261600480360381019061025c91906121ca565b610659565b005b34801561026f57600080fd5b5061027861075b565b005b34801561028657600080fd5b506102a1600480360381019061029c91906121ca565b6107fc565b005b3480156102af57600080fd5b506102ca60048036038101906102c591906120ab565b61081c565b6040516102d791906121af565b60405180910390f35b3480156102ec57600080fd5b50610307600480360381019061030291906120ab565b610834565b6040516103149190612119565b60405180910390f35b34801561032957600080fd5b50610344600480360381019061033f919061221d565b610846565b005b34801561035257600080fd5b5061036d6004803603810190610368919061225d565b6108bb565b60405161037a91906121af565b60405180910390f35b34801561038f57600080fd5b50610398610975565b005b3480156103a657600080fd5b506103af610989565b6040516103bc9190612119565b60405180910390f35b3480156103d157600080fd5b506103da6109b3565b6040516103e79190612053565b60405180910390f35b3480156103fc57600080fd5b50610417600480360381019061041291906122b6565b610a45565b005b610433600480360381019061042e919061242b565b610a5b565b60405161044091906121af565b60405180910390f35b34801561045557600080fd5b50610470600480360381019061046b9190612528565b610bbe565b005b34801561047e57600080fd5b50610499600480360381019061049491906120ab565b610be3565b6040516104a69190612053565b60405180910390f35b3480156104bb57600080fd5b506104d660048036038101906104d191906125ab565b610bf5565b6040516104e39190611fa8565b60405180910390f35b3480156104f857600080fd5b50610513600480360381019061050e919061225d565b610c89565b005b600061052082610d0f565b9050919050565b6060600080546105369061261a565b80601f01602080910402602001604051908101604052809291908181526020018280546105629061261a565b80156105af5780601f10610584576101008083540402835291602001916105af565b820191906000526020600020905b81548152906001019060200180831161059257829003601f168201915b5050505050905090565b60006105c482610d70565b506105ce82610df8565b9050919050565b6105e782826105e2610e35565b610e3d565b5050565b6000600182101580156105ff575060038211155b61063e576040517f08c379a000000000000000000000000000000000000000000000000000000000815260040161063590612697565b60405180910390fd5b60096000838152602001908152602001600020549050919050565b600073ffffffffffffffffffffffffffffffffffffffff168273ffffffffffffffffffffffffffffffffffffffff16036106cb5760006040517f64a0ae920000000000000000000000000000000000000000000000000000000081526004016106c29190612119565b60405180910390fd5b60006106df83836106da610e35565b610e4f565b90508373ffffffffffffffffffffffffffffffffffffffff168173ffffffffffffffffffffffffffffffffffffffff1614610755578382826040517f64283d7b00000000000000000000000000000000000000000000000000000000815260040161074c939291906126b7565b60405180910390fd5b50505050565b610763611069565b6000479050600081116107ab576040517f08c379a00000000000000000000000000000000000000000000000000000000081526004016107a29061273a565b60405180910390fd5b6107b3610989565b73ffffffffffffffffffffffffffffffffffffffff166108fc829081150290604051600060405180830381858888f193505050501580156107f8573d6000803e3d6000fd5b5050565b61081783838360405180602001604052806000815250610bbe565b505050565b60096020528060005260406000206000915090505481565b600061083f82610d70565b9050919050565b61084e611069565b60018210158015610860575060038211155b61089f576040517f08c379a000000000000000000000000000000000000000000000000000000000815260040161089690612697565b60405180910390fd5b8060096000848152602001908152602001600020819055505050565b60008073ffffffffffffffffffffffffffffffffffffffff168273ffffffffffffffffffffffffffffffffffffffff160361092e5760006040517f89c62b640000000000000000000000000000000000000000000000000000000081526004016109259190612119565b60405180910390fd5b600360008373ffffffffffffffffffffffffffffffffffffffff1673ffffffffffffffffffffffffffffffffffffffff168152602001908152602001600020549050919050565b61097d611069565b61098760006110f0565b565b6000600760009054906101000a900473ffffffffffffffffffffffffffffffffffffffff16905090565b6060600180546109c29061261a565b80601f01602080910402602001604051908101604052809291908181526020018280546109ee9061261a565b8015610a3b5780601f10610a1057610100808354040283529160200191610a3b565b820191906000526020600020905b815481529060010190602001808311610a1e57829003601f168201915b5050505050905090565b610a57610a50610e35565b83836111b6565b5050565b600060018310158015610a6f575060038311155b610aae576040517f08c379a0000000000000000000000000000000000000000000000000000000008152600401610aa590612697565b60405180910390fd5b6009600084815260200190815260200160002054341015610b04576040517f08c379a0000000000000000000000000000000000000000000000000000000008152600401610afb906127a6565b60405180910390fd5b600060086000815480929190610b19906127f5565b919050559050610b293382611325565b610b338184611343565b6009600085815260200190815260200160002054341115610bb4573373ffffffffffffffffffffffffffffffffffffffff166108fc600960008781526020019081526020016000205434610b87919061283d565b9081150290604051600060405180830381858888f19350505050158015610bb2573d6000803e3d6000fd5b505b8091505092915050565b610bc9848484610659565b610bdd610bd4610e35565b8585858561139f565b50505050565b6060610bee82611550565b9050919050565b6000600560008473ffffffffffffffffffffffffffffffffffffffff1673ffffffffffffffffffffffffffffffffffffffff16815260200190815260200160002060008373ffffffffffffffffffffffffffffffffffffffff1673ffffffffffffffffffffffffffffffffffffffff16815260200190815260200160002060009054906101000a900460ff16905092915050565b610c91611069565b600073ffffffffffffffffffffffffffffffffffffffff168173ffffffffffffffffffffffffffffffffffffffff1603610d035760006040517f1e4fbdf7000000000000000000000000000000000000000000000000000000008152600401610cfa9190612119565b60405180910390fd5b610d0c816110f0565b50565b6000634906490660e01b7bffffffffffffffffffffffffffffffffffffffffffffffffffffffff1916827bffffffffffffffffffffffffffffffffffffffffffffffffffffffff19161480610d695750610d6882611663565b5b9050919050565b600080610d7c83611745565b9050600073ffffffffffffffffffffffffffffffffffffffff168173ffffffffffffffffffffffffffffffffffffffff1603610def57826040517f7e273289000000000000000000000000000000000000000000000000000000008152600401610de691906121af565b60405180910390fd5b80915050919050565b60006004600083815260200190815260200160002060009054906101000a900473ffffffffffffffffffffffffffffffffffffffff169050919050565b600033905090565b610e4a8383836001611782565b505050565b600080610e5b84611745565b9050600073ffffffffffffffffffffffffffffffffffffffff168373ffffffffffffffffffffffffffffffffffffffff1614610e9d57610e9c818486611947565b5b600073ffffffffffffffffffffffffffffffffffffffff168173ffffffffffffffffffffffffffffffffffffffff1614610f2e57610edf600085600080611782565b6001600360008373ffffffffffffffffffffffffffffffffffffffff1673ffffffffffffffffffffffffffffffffffffffff168152602001908152602001600020600082825403925050819055505b600073ffffffffffffffffffffffffffffffffffffffff168573ffffffffffffffffffffffffffffffffffffffff1614610fb1576001600360008773ffffffffffffffffffffffffffffffffffffffff1673ffffffffffffffffffffffffffffffffffffffff168152602001908152602001600020600082825401925050819055505b846002600086815260200190815260200160002060006101000a81548173ffffffffffffffffffffffffffffffffffffffff021916908373ffffffffffffffffffffffffffffffffffffffff160217905550838573ffffffffffffffffffffffffffffffffffffffff168273ffffffffffffffffffffffffffffffffffffffff167fddf252ad1be2c89b69c2b068fc378daa952ba7f163c4a11628f55a4df523b3ef60405160405180910390a4809150509392505050565b611071610e35565b73ffffffffffffffffffffffffffffffffffffffff1661108f610989565b73ffffffffffffffffffffffffffffffffffffffff16146110ee576110b2610e35565b6040517f118cdaa70000000000000000000000000000000000000000000000000000000081526004016110e59190612119565b60405180910390fd5b565b6000600760009054906101000a900473ffffffffffffffffffffffffffffffffffffffff16905081600760006101000a81548173ffffffffffffffffffffffffffffffffffffffff021916908373ffffffffffffffffffffffffffffffffffffffff1602179055508173ffffffffffffffffffffffffffffffffffffffff168173ffffffffffffffffffffffffffffffffffffffff167f8be0079c531659141344cd1fd0a4f28419497f9722a3daafe3b4186f6b6457e060405160405180910390a35050565b600073ffffffffffffffffffffffffffffffffffffffff168273ffffffffffffffffffffffffffffffffffffffff160361122757816040517f5b08ba1800000000000000000000000000000000000000000000000000000000815260040161121e9190612119565b60405180910390fd5b80600560008573ffffffffffffffffffffffffffffffffffffffff1673ffffffffffffffffffffffffffffffffffffffff16815260200190815260200160002060008473ffffffffffffffffffffffffffffffffffffffff1673ffffffffffffffffffffffffffffffffffffffff16815260200190815260200160002060006101000a81548160ff0219169083151502179055508173ffffffffffffffffffffffffffffffffffffffff168373ffffffffffffffffffffffffffffffffffffffff167f17307eab39ab6107e8899845ad3d59bd9653f200f220920489ca2b5937696c31836040516113189190611fa8565b60405180910390a3505050565b61133f828260405180602001604052806000815250611a0b565b5050565b806006600084815260200190815260200160002090816113639190612a1d565b507ff8e1a15aba9398e019f0b49df1a4fde98ee17ae345cb5f6b5e2c27f5033e8ce78260405161139391906121af565b60405180910390a15050565b60008373ffffffffffffffffffffffffffffffffffffffff163b1115611549578273ffffffffffffffffffffffffffffffffffffffff1663150b7a02868685856040518563ffffffff1660e01b81526004016113fe9493929190612b44565b6020604051808303816000875af192505050801561143a57506040513d601f19601f820116820180604052508101906114379190612ba5565b60015b6114be573d806000811461146a576040519150601f19603f3d011682016040523d82523d6000602084013e61146f565b606091505b5060008151036114b657836040517f64a0ae920000000000000000000000000000000000000000000000000000000081526004016114ad9190612119565b60405180910390fd5b805181602001fd5b63150b7a0260e01b7bffffffffffffffffffffffffffffffffffffffffffffffffffffffff1916817bffffffffffffffffffffffffffffffffffffffffffffffffffffffff19161461154757836040517f64a0ae9200000000000000000000000000000000000000000000000000000000815260040161153e9190612119565b60405180910390fd5b505b5050505050565b606061155b82610d70565b50600060066000848152602001908152602001600020805461157c9061261a565b80601f01602080910402602001604051908101604052809291908181526020018280546115a89061261a565b80156115f55780601f106115ca576101008083540402835291602001916115f5565b820191906000526020600020905b8154815290600101906020018083116115d857829003601f168201915b505050505090506000611606611a2f565b9050600081510361161b57819250505061165e565b600082511115611650578082604051602001611638929190612c0e565b6040516020818303038152906040529250505061165e565b61165984611a46565b925050505b919050565b60007f80ac58cd000000000000000000000000000000000000000000000000000000007bffffffffffffffffffffffffffffffffffffffffffffffffffffffff1916827bffffffffffffffffffffffffffffffffffffffffffffffffffffffff1916148061172e57507f5b5e139f000000000000000000000000000000000000000000000000000000007bffffffffffffffffffffffffffffffffffffffffffffffffffffffff1916827bffffffffffffffffffffffffffffffffffffffffffffffffffffffff1916145b8061173e575061173d82611aaf565b5b9050919050565b60006002600083815260200190815260200160002060009054906101000a900473ffffffffffffffffffffffffffffffffffffffff169050919050565b80806117bb5750600073ffffffffffffffffffffffffffffffffffffffff168273ffffffffffffffffffffffffffffffffffffffff1614155b156118ef5760006117cb84610d70565b9050600073ffffffffffffffffffffffffffffffffffffffff168373ffffffffffffffffffffffffffffffffffffffff161415801561183657508273ffffffffffffffffffffffffffffffffffffffff168173ffffffffffffffffffffffffffffffffffffffff1614155b801561184957506118478184610bf5565b155b1561188b57826040517fa9fbf51f0000000000000000000000000000000000000000000000000000000081526004016118829190612119565b60405180910390fd5b81156118ed57838573ffffffffffffffffffffffffffffffffffffffff168273ffffffffffffffffffffffffffffffffffffffff167f8c5be1e5ebec7d5bd14f71427d1e84f3dd0314c0f7b2291e5b200ac8c7c3b92560405160405180910390a45b505b836004600085815260200190815260200160002060006101000a81548173ffffffffffffffffffffffffffffffffffffffff021916908373ffffffffffffffffffffffffffffffffffffffff16021790555050505050565b611952838383611b19565b611a0657600073ffffffffffffffffffffffffffffffffffffffff168373ffffffffffffffffffffffffffffffffffffffff16036119c757806040517f7e2732890000000000000000000000000000000000000000000000000000000081526004016119be91906121af565b60405180910390fd5b81816040517f177e802f0000000000000000000000000000000000000000000000000000000081526004016119fd929190612c32565b60405180910390fd5b505050565b611a158383611bda565b611a2a611a20610e35565b600085858561139f565b505050565b606060405180602001604052806000815250905090565b6060611a5182610d70565b506000611a5c611a2f565b90506000815111611a7c5760405180602001604052806000815250611aa7565b80611a8684611cd3565b604051602001611a97929190612c0e565b6040516020818303038152906040525b915050919050565b60007f01ffc9a7000000000000000000000000000000000000000000000000000000007bffffffffffffffffffffffffffffffffffffffffffffffffffffffff1916827bffffffffffffffffffffffffffffffffffffffffffffffffffffffff1916149050919050565b60008073ffffffffffffffffffffffffffffffffffffffff168373ffffffffffffffffffffffffffffffffffffffff1614158015611bd157508273ffffffffffffffffffffffffffffffffffffffff168473ffffffffffffffffffffffffffffffffffffffff161480611b925750611b918484610bf5565b5b80611bd057508273ffffffffffffffffffffffffffffffffffffffff16611bb883610df8565b73ffffffffffffffffffffffffffffffffffffffff16145b5b90509392505050565b600073ffffffffffffffffffffffffffffffffffffffff168273ffffffffffffffffffffffffffffffffffffffff1603611c4c5760006040517f64a0ae92000000000000000000000000000000000000000000000000000000008152600401611c439190612119565b60405180910390fd5b6000611c5a83836000610e4f565b9050600073ffffffffffffffffffffffffffffffffffffffff168173ffffffffffffffffffffffffffffffffffffffff1614611cce5760006040517f73c6ac6e000000000000000000000000000000000000000000000000000000008152600401611cc59190612119565b60405180910390fd5b505050565b606060006001611ce284611da1565b01905060008167ffffffffffffffff811115611d0157611d00612300565b5b6040519080825280601f01601f191660200182016040528015611d335781602001600182028036833780820191505090505b509050600082602001820190505b600115611d96578080600190039150507f3031323334353637383961626364656600000000000000000000000000000000600a86061a8153600a8581611d8a57611d89612c5b565b5b04945060008503611d41575b819350505050919050565b600080600090507a184f03e93ff9f4daa797ed6e38ed64bf6a1f0100000000000000008310611dff577a184f03e93ff9f4daa797ed6e38ed64bf6a1f0100000000000000008381611df557611df4612c5b565b5b0492506040810190505b6d04ee2d6d415b85acef81000000008310611e3c576d04ee2d6d415b85acef81000000008381611e3257611e31612c5b565b5b0492506020810190505b662386f26fc100008310611e6b57662386f26fc100008381611e6157611e60612c5b565b5b0492506010810190505b6305f5e1008310611e94576305f5e1008381611e8a57611e89612c5b565b5b0492506008810190505b6127108310611eb9576127108381611eaf57611eae612c5b565b5b0492506004810190505b60648310611edc5760648381611ed257611ed1612c5b565b5b0492506002810190505b600a8310611eeb576001810190505b80915050919050565b6000604051905090565b600080fd5b600080fd5b60007fffffffff0000000000000000000000000000000000000000000000000000000082169050919050565b611f3d81611f08565b8114611f4857600080fd5b50565b600081359050611f5a81611f34565b92915050565b600060208284031215611f7657611f75611efe565b5b6000611f8484828501611f4b565b91505092915050565b60008115159050919050565b611fa281611f8d565b82525050565b6000602082019050611fbd6000830184611f99565b92915050565b600081519050919050565b600082825260208201905092915050565b60005b83811015611ffd578082015181840152602081019050611fe2565b60008484015250505050565b6000601f19601f8301169050919050565b600061202582611fc3565b61202f8185611fce565b935061203f818560208601611fdf565b61204881612009565b840191505092915050565b6000602082019050818103600083015261206d818461201a565b905092915050565b6000819050919050565b61208881612075565b811461209357600080fd5b50565b6000813590506120a58161207f565b92915050565b6000602082840312156120c1576120c0611efe565b5b60006120cf84828501612096565b91505092915050565b600073ffffffffffffffffffffffffffffffffffffffff82169050919050565b6000612103826120d8565b9050919050565b612113816120f8565b82525050565b600060208201905061212e600083018461210a565b92915050565b61213d816120f8565b811461214857600080fd5b50565b60008135905061215a81612134565b92915050565b6000806040838503121561217757612176611efe565b5b60006121858582860161214b565b925050602061219685828601612096565b9150509250929050565b6121a981612075565b82525050565b60006020820190506121c460008301846121a0565b92915050565b6000806000606084860312156121e3576121e2611efe565b5b60006121f18682870161214b565b93505060206122028682870161214b565b925050604061221386828701612096565b9150509250925092565b6000806040838503121561223457612233611efe565b5b600061224285828601612096565b925050602061225385828601612096565b9150509250929050565b60006020828403121561227357612272611efe565b5b60006122818482850161214b565b91505092915050565b61229381611f8d565b811461229e57600080fd5b50565b6000813590506122b08161228a565b92915050565b600080604083850312156122cd576122cc611efe565b5b60006122db8582860161214b565b92505060206122ec858286016122a1565b9150509250929050565b600080fd5b600080fd5b7f4e487b7100000000000000000000000000000000000000000000000000000000600052604160045260246000fd5b61233882612009565b810181811067ffffffffffffffff8211171561235757612356612300565b5b80604052505050565b600061236a611ef4565b9050612376828261232f565b919050565b600067ffffffffffffffff82111561239657612395612300565b5b61239f82612009565b9050602081019050919050565b82818337600083830152505050565b60006123ce6123c98461237b565b612360565b9050828152602081018484840111156123ea576123e96122fb565b5b6123f58482856123ac565b509392505050565b600082601f830112612412576124116122f6565b5b81356124228482602086016123bb565b91505092915050565b6000806040838503121561244257612441611efe565b5b600061245085828601612096565b925050602083013567ffffffffffffffff81111561247157612470611f03565b5b61247d858286016123fd565b9150509250929050565b600067ffffffffffffffff8211156124a2576124a1612300565b5b6124ab82612009565b9050602081019050919050565b60006124cb6124c684612487565b612360565b9050828152602081018484840111156124e7576124e66122fb565b5b6124f28482856123ac565b509392505050565b600082601f83011261250f5761250e6122f6565b5b813561251f8482602086016124b8565b91505092915050565b6000806000806080858703121561254257612541611efe565b5b60006125508782880161214b565b94505060206125618782880161214b565b935050604061257287828801612096565b925050606085013567ffffffffffffffff81111561259357612592611f03565b5b61259f878288016124fa565b91505092959194509250565b600080604083850312156125c2576125c1611efe565b5b60006125d08582860161214b565b92505060206125e18582860161214b565b9150509250929050565b7f4e487b7100000000000000000000000000000000000000000000000000000000600052602260045260246000fd5b6000600282049050600182168061263257607f821691505b602082108103612645576126446125eb565b5b50919050565b7f496e76616c6964206d697373696c652074797065000000000000000000000000600082015250565b6000612681601483611fce565b915061268c8261264b565b602082019050919050565b600060208201905081810360008301526126b081612674565b9050919050565b60006060820190506126cc600083018661210a565b6126d960208301856121a0565b6126e6604083018461210a565b949350505050565b7f4e6f2066756e647320746f207769746864726177000000000000000000000000600082015250565b6000612724601483611fce565b915061272f826126ee565b602082019050919050565b6000602082019050818103600083015261275381612717565b9050919050565b7f496e73756666696369656e74207061796d656e74000000000000000000000000600082015250565b6000612790601483611fce565b915061279b8261275a565b602082019050919050565b600060208201905081810360008301526127bf81612783565b9050919050565b7f4e487b7100000000000000000000000000000000000000000000000000000000600052601160045260246000fd5b600061280082612075565b91507fffffffffffffffffffffffffffffffffffffffffffffffffffffffffffffffff8203612832576128316127c6565b5b600182019050919050565b600061284882612075565b915061285383612075565b925082820390508181111561286b5761286a6127c6565b5b92915050565b60008190508160005260206000209050919050565b60006020601f8301049050919050565b600082821b905092915050565b6000600883026128d37fffffffffffffffffffffffffffffffffffffffffffffffffffffffffffffffff82612896565b6128dd8683612896565b95508019841693508086168417925050509392505050565b6000819050919050565b600061291a61291561291084612075565b6128f5565b612075565b9050919050565b6000819050919050565b612934836128ff565b61294861294082612921565b8484546128a3565b825550505050565b600090565b61295d612950565b61296881848461292b565b505050565b5b8181101561298c57612981600082612955565b60018101905061296e565b5050565b601f8211156129d1576129a281612871565b6129ab84612886565b810160208510156129ba578190505b6129ce6129c685612886565b83018261296d565b50505b505050565b600082821c905092915050565b60006129f4600019846008026129d6565b1980831691505092915050565b6000612a0d83836129e3565b9150826002028217905092915050565b612a2682611fc3565b67ffffffffffffffff811115612a3f57612a3e612300565b5b612a49825461261a565b612a54828285612990565b600060209050601f831160018114612a875760008415612a75578287015190505b612a7f8582612a01565b865550612ae7565b601f198416612a9586612871565b60005b82811015612abd57848901518255600182019150602085019450602081019050612a98565b86831015612ada5784890151612ad6601f8916826129e3565b8355505b6001600288020188555050505b505050505050565b600081519050919050565b600082825260208201905092915050565b6000612b1682612aef565b612b208185612afa565b9350612b30818560208601611fdf565b612b3981612009565b840191505092915050565b6000608082019050612b59600083018761210a565b612b66602083018661210a565b612b7360408301856121a0565b8181036060830152612b858184612b0b565b905095945050505050565b600081519050612b9f81611f34565b92915050565b600060208284031215612bbb57612bba611efe565b5b6000612bc984828501612b90565b91505092915050565b600081905092915050565b6000612be882611fc3565b612bf28185612bd2565b9350612c02818560208601611fdf565b80840191505092915050565b6000612c1a8285612bdd565b9150612c268284612bdd565b91508190509392505050565b6000604082019050612c47600083018561210a565b612c5460208301846121a0565b9392505050565b7f4e487b7100000000000000000000000000000000000000000000000000000000600052601260045260246000fdfea2646970667358221220cf3ca686625476fdf7b56c930ecf60a72dcbd4c39e900daa10bc21a2fda7d9d264736f6c634300081c0033",
  "linkReferences": {},
  "deployedLinkReferences": {}
}